{
  "contractName": "Voting",
  "abi": [
    {
      "inputs": [
        {
          "internalType": "string[]",
          "name": "candidateNames",
          "type": "string[]"
        }
      ],
      "stateMutability": "nonpayable",
      "type": "constructor"
    },
    {
      "anonymous": false,
      "inputs": [
        {
          "indexed": true,
          "internalType": "address",
          "name": "voter",
          "type": "address"
        },
        {
          "indexed": true,
          "internalType": "uint256",
          "name": "candidateId",
          "type": "uint256"
        }
      ],
      "name": "Voted",
      "type": "event"
    },
    {
      "inputs": [
        {
          "internalType": "uint256",
          "name": "",
          "type": "uint256"
        }
      ],
      "name": "candidates",
      "outputs": [
        {
          "internalType": "string",
          "name": "name",
          "type": "string"
        },
        {
          "internalType": "uint256",
          "name": "voteCount",
          "type": "uint256"
        }
      ],
      "stateMutability": "view",
      "type": "function",
      "constant": true
    },
    {
      "inputs": [
        {
          "internalType": "address",
          "name": "",
          "type": "address"
        }
      ],
      "name": "voters",
      "outputs": [
        {
          "internalType": "bool",
          "name": "",
          "type": "bool"
        }
      ],
      "stateMutability": "view",
      "type": "function",
      "constant": true
    },
    {
      "inputs": [
        {
          "internalType": "uint256",
          "name": "candidateId",
          "type": "uint256"
        }
      ],
      "name": "vote",
      "outputs": [],
      "stateMutability": "nonpayable",
      "type": "function"
    },
    {
      "inputs": [],
      "name": "getCandidates",
      "outputs": [
        {
          "components": [
            {
              "internalType": "string",
              "name": "name",
              "type": "string"
            },
            {
              "internalType": "uint256",
              "name": "voteCount",
              "type": "uint256"
            }
          ],
          "internalType": "struct Voting.Candidate[]",
          "name": "",
          "type": "tuple[]"
        }
      ],
      "stateMutability": "view",
      "type": "function",
      "constant": true
    }
  ],
  "bytecode": "0x60806040523480156200001157600080fd5b5060405162000edf38038062000edf8339818101604052810190620000379190620002c3565b60005b81518110156200010757600160405180604001604052808484815181106200008b577f4e487b7100000000000000000000000000000000000000000000000000000000600052603260045260246000fd5b60200260200101518152602001600081525090806001815401808255809150506001900390600052602060002090600202016000909190919091506000820151816000019080519060200190620000e49291906200010f565b506020820151816001015550508080620000fe9062000414565b9150506200003a565b5050620004ef565b8280546200011d90620003de565b90600052602060002090601f0160209004810192826200014157600085556200018d565b82601f106200015c57805160ff19168380011785556200018d565b828001600101855582156200018d579182015b828111156200018c5782518255916020019190600101906200016f565b5b5090506200019c9190620001a0565b5090565b5b80821115620001bb576000816000905550600101620001a1565b5090565b6000620001d6620001d0846200033c565b62000308565b9050808382526020820190508260005b858110156200021a5781518501620001ff888262000296565b845260208401935060208301925050600181019050620001e6565b5050509392505050565b60006200023b62000235846200036b565b62000308565b9050828152602081018484840111156200025457600080fd5b62000261848285620003a8565b509392505050565b600082601f8301126200027b57600080fd5b81516200028d848260208601620001bf565b91505092915050565b600082601f830112620002a857600080fd5b8151620002ba84826020860162000224565b91505092915050565b600060208284031215620002d657600080fd5b600082015167ffffffffffffffff811115620002f157600080fd5b620002ff8482850162000269565b91505092915050565b6000604051905081810181811067ffffffffffffffff82111715620003325762000331620004c0565b5b8060405250919050565b600067ffffffffffffffff8211156200035a5762000359620004c0565b5b602082029050602081019050919050565b600067ffffffffffffffff821115620003895762000388620004c0565b5b601f19601f8301169050602081019050919050565b6000819050919050565b60005b83811015620003c8578082015181840152602081019050620003ab565b83811115620003d8576000848401525b50505050565b60006002820490506001821680620003f757607f821691505b602082108114156200040e576200040d62000491565b5b50919050565b600062000421826200039e565b91507fffffffffffffffffffffffffffffffffffffffffffffffffffffffffffffffff82141562000457576200045662000462565b5b600182019050919050565b7f4e487b7100000000000000000000000000000000000000000000000000000000600052601160045260246000fd5b7f4e487b7100000000000000000000000000000000000000000000000000000000600052602260045260246000fd5b7f4e487b7100000000000000000000000000000000000000000000000000000000600052604160045260246000fd5b6109e080620004ff6000396000f3fe608060405234801561001057600080fd5b506004361061004c5760003560e01c80630121b93f1461005157806306a49fce1461006d5780633477ee2e1461008b578063a3ec138d146100bc575b600080fd5b61006b600480360381019061006691906104e9565b6100ec565b005b6100756102bf565b60405161008291906106f7565b60405180910390f35b6100a560048036038101906100a091906104e9565b6103ba565b6040516100b3929190610734565b60405180910390f35b6100d660048036038101906100d191906104c0565b610476565b6040516100e39190610719565b60405180910390f35b6000803373ffffffffffffffffffffffffffffffffffffffff1673ffffffffffffffffffffffffffffffffffffffff16815260200190815260200160002060009054906101000a900460ff1615610178576040517f08c379a000000000000000000000000000000000000000000000000000000000815260040161016f90610764565b60405180910390fd5b60018054905081106101bf576040517f08c379a00000000000000000000000000000000000000000000000000000000081526004016101b690610784565b60405180910390fd5b60016000803373ffffffffffffffffffffffffffffffffffffffff1673ffffffffffffffffffffffffffffffffffffffff16815260200190815260200160002060006101000a81548160ff0219169083151502179055506001808281548110610251577f4e487b7100000000000000000000000000000000000000000000000000000000600052603260045260246000fd5b90600052602060002090600202016001016000828254610271919061080a565b92505081905550803373ffffffffffffffffffffffffffffffffffffffff167f4d99b957a2bc29a30ebd96a7be8e68fe50a3c701db28a91436490b7d53870ca460405160405180910390a350565b60606001805480602002602001604051908101604052809291908181526020016000905b828210156103b15783829060005260206000209060020201604051806040016040529081600082018054610316906108db565b80601f0160208091040260200160405190810160405280929190818152602001828054610342906108db565b801561038f5780601f106103645761010080835404028352916020019161038f565b820191906000526020600020905b81548152906001019060200180831161037257829003601f168201915b50505050508152602001600182015481525050815260200190600101906102e3565b50505050905090565b600181815481106103ca57600080fd5b90600052602060002090600202016000915090508060000180546103ed906108db565b80601f0160208091040260200160405190810160405280929190818152602001828054610419906108db565b80156104665780601f1061043b57610100808354040283529160200191610466565b820191906000526020600020905b81548152906001019060200180831161044957829003601f168201915b5050505050908060010154905082565b60006020528060005260406000206000915054906101000a900460ff1681565b6000813590506104a58161097c565b92915050565b6000813590506104ba81610993565b92915050565b6000602082840312156104d257600080fd5b60006104e084828501610496565b91505092915050565b6000602082840312156104fb57600080fd5b6000610509848285016104ab565b91505092915050565b600061051e838361069c565b905092915050565b6000610531826107b4565b61053b81856107d7565b93508360208202850161054d856107a4565b8060005b85811015610589578484038952815161056a8582610512565b9450610575836107ca565b925060208a01995050600181019050610551565b50829750879550505050505092915050565b6105a481610872565b82525050565b60006105b5826107bf565b6105bf81856107e8565b93506105cf8185602086016108a8565b6105d88161096b565b840191505092915050565b60006105ee826107bf565b6105f881856107f9565b93506106088185602086016108a8565b6106118161096b565b840191505092915050565b60006106296017836107f9565b91507f596f75206861766520616c726561647920766f7465642e0000000000000000006000830152602082019050919050565b60006106696015836107f9565b91507f496e76616c69642063616e6469646174652049442e00000000000000000000006000830152602082019050919050565b600060408301600083015184820360008601526106b982826105aa565b91505060208301516106ce60208601826106d9565b508091505092915050565b6106e28161089e565b82525050565b6106f18161089e565b82525050565b600060208201905081810360008301526107118184610526565b905092915050565b600060208201905061072e600083018461059b565b92915050565b6000604082019050818103600083015261074e81856105e3565b905061075d60208301846106e8565b9392505050565b6000602082019050818103600083015261077d8161061c565b9050919050565b6000602082019050818103600083015261079d8161065c565b9050919050565b6000819050602082019050919050565b600081519050919050565b600081519050919050565b6000602082019050919050565b600082825260208201905092915050565b600082825260208201905092915050565b600082825260208201905092915050565b60006108158261089e565b91506108208361089e565b9250827fffffffffffffffffffffffffffffffffffffffffffffffffffffffffffffffff038211156108555761085461090d565b5b828201905092915050565b600061086b8261087e565b9050919050565b60008115159050919050565b600073ffffffffffffffffffffffffffffffffffffffff82169050919050565b6000819050919050565b60005b838110156108c65780820151818401526020810190506108ab565b838111156108d5576000848401525b50505050565b600060028204905060018216806108f357607f821691505b602082108114156109075761090661093c565b5b50919050565b7f4e487b7100000000000000000000000000000000000000000000000000000000600052601160045260246000fd5b7f4e487b7100000000000000000000000000000000000000000000000000000000600052602260045260246000fd5b6000601f19601f8301169050919050565b61098581610860565b811461099057600080fd5b50565b61099c8161089e565b81146109a757600080fd5b5056fea2646970667358221220620d8786d147e8e595336f85ff62057e090bc3caf2097c81b576462363e56f4b64736f6c63430008000033",
  "immutableReferences": {},
  "source": "// SPDX-License-Identifier: MIT\r\npragma solidity ^0.8.0;\r\n\r\ncontract Voting {\r\n    struct Candidate {\r\n        string name;\r\n        uint256 voteCount;\r\n    }\r\n\r\n    mapping(address => bool) public voters;\r\n    Candidate[] public candidates;\r\n\r\n    event Voted(address indexed voter, uint256 indexed candidateId);\r\n\r\n    constructor(string[] memory candidateNames) {\r\n        for (uint256 i = 0; i < candidateNames.length; i++) {\r\n            candidates.push(Candidate(candidateNames[i], 0));\r\n        }\r\n    }\r\n\r\n    function vote(uint256 candidateId) public {\r\n        require(!voters[msg.sender], \"You have already voted.\");\r\n        require(candidateId < candidates.length, \"Invalid candidate ID.\");\r\n\r\n        voters[msg.sender] = true;\r\n        candidates[candidateId].voteCount += 1;\r\n\r\n        emit Voted(msg.sender, candidateId);\r\n    }\r\n\r\n    function getCandidates() public view returns (Candidate[] memory) {\r\n        return candidates;\r\n    }\r\n}\r\n",
  "sourcePath": "C:\\Users\\Akerke Mustafa\\Desktop\\University\\Blockchain(1)\\myVotingDapp\\contracts\\Voting.sol",
  "compiler": {
    "name": "solc",
    "version": "0.8.0+commit.c7dfd78e.Emscripten.clang"
  },
  "schemaVersion": "3.4.16",
  "updatedAt": "2025-01-28T14:06:26.100Z",
  "networkType": "ethereum",
  "devdoc": {
    "kind": "dev",
    "methods": {},
    "version": 1
  },
  "userdoc": {
    "kind": "user",
    "methods": {},
    "version": 1
  }
}